S01100006669626F6E616363692E7372656375
S1130000930000001381000093810000138200001C
S11300109382000013830000938300001384000084
S1130020938400001385000093850000138600006C
S11300309386000013870000938700001388000054
S1130040938800001389000093890000138A00003C
S1130050938A0000138B0000938B0000138C000024
S1130060938C0000138D0000938D0000138E00000C
S1130070938E0000138F0000938F0000172100005F
S1130080130141F8171D0000130DCDF7971D000053
S1130090938D4DF76358BD0123200D00130D4D00C2
S11300A0E3DCADFF1305000093050000EF008000C2
S11300B06F000000130101FE232E1100232C810088
S11300C013040102930750002326F4FE9307100043
S11300D02324F4FE6F0040028325C4FE032584FE1E
S11300E0EF008003930705002324F4FE8327C4FE56
S11300F09387F7FF2326F4FE8327C4FEE34EF0FC28
S113010093070000138507008320C10103248101A4
S113011013010102678000001306050013050000A7
S113012093F61500638406003305C50093D51500C6
S113013013161600E39605FE678000000000000019
S10F0140000000000000000000000000AF
S9030000FC
