S01300007472617050726F6772616D2E7372656382
S11300006F0040106F0040276F00C0296F00002769
S11300106F0000276F0000276F00C0286F00C02604
S11300206F00C0266F0000286F00C0276F00802774
S11300306F0000266F0000276F00C0266F00802627
S11300406F0040266F0000266F00C0256F008025DA
S11300506F0040256F0000256F00C0246F008024CE
S11300606F0040246F0000246F00C0236F008023C2
S11300706F0040236F0000236F00C0226F008022B6
S11300806F0040226F0000226F00C0216F008021AA
S11300906F0040216F0000216F00C0206F0080209E
S11300A06F0040206F0000206F00C01F6F00801F92
S11300B06F00401F6F00001F6F00C01E6F00801E86
S11300C06F00401E6F00001D6F00C01C6F00801C7D
S11300D06F00401C6F00001C6F00C01B6F00801B72
S11300E06F00401B6F00001B6F00C01A6F00801A66
S11300F06F00401A6F00001A6F00C0196F0080195A
S10701006F0040192F
S11301049300001893904000F3900030F3D05830DB
S11301149300000013810000938100001382000007
S1130124938200001383000093830000138400006F
S11301349384000013850000938500001386000057
S1130144938600001387000093870000138800003F
S1130154938800001389000093890000138A000027
S1130164938A0000138B0000938B0000138C00000F
S1130174938C0000138D0000938D0000138E0000F7
S1130184938E0000138F0000938F0000172100004A
S1130194130101E7171D0000130D0DE8971D00005E
S11301A4938D8DE76358BD0123200D00130D4D007D
S11301B4E3DCADFF13050000930500009303000086
S11301C4B703FFFFF3A3433093038000F3A3033087
S11301D493030000EF00000D6F00000023203100A2
S11301E42322410023245100232661002328710083
S11301F4232AA100232CB100232EC1002320D102E1
S11302042322E1022324F1022326010323281103D8
S1130214232AC103232CD103232EE1032320F10534
S113022467800000832101000322410083228100AE
S11302340323C10083230101032541018325810193
S11302440326C10183260102032741028327810275
S11302540328C10283280103032E4103832E81034F
S1130264032FC103832F0104832041041301810458
S1130274730020306F0000056F0080066F00400D8E
S11302846F00C0076F0040096F0000196F0040251C
S1130294130181FB23221104EFF05FF46FF09FF844
S11302A46F000000130101FF2326810013040101E0
S11302B493070000138507000324C10013010101FF
S11302C467800000130101FF232681001304010148
S11302D4130000000324C100130101017300203042
S11302E4130101FF232681001304010113000000FC
S11302F40324C1001301010173002030130101FF21
S11303042326810013040101130000000324C10007
S11303141301010173002030130101FF232681001E
S113032413040101130000000324C100130101019B
S113033473002030130101FF2326810013040101FB
S1130344130000000324C1001301010173002030D1
S1130354130101FB232611042324510423226104E1
S113036423207104232E8102232CA102232AB10207
S11303742328C1022326D1022324E1022322F102E9
S113038423200103232E1101232CC101232AD1018B
S11303942328E1012326F10113040105B717000002
S11303A403A70700B717000083A747009385070036
S11303B413050700EF0000219307050013870700C6
S11303C4B717000023A6E700130000008320C1042C
S11303D48322810403234104832301040324C103EA
S11303E40325810383254103032601038326C102D4
S11303F40327810283274102032801028328C101C0
S1130404032E8101832E4101032F0101832FC10097
S11304141301010573002030130101FB2326110489
S1130424232451042322610423207104232E8102F2
S1130434232CA102232AB1022328C1022326D10298
S11304442324E1022322F10223200103232E110198
S1130454232CC101232AD1012328E1012326F101FC
S113046413040105B717000003A74700B7170000DA
S113047483A787009385070013050700EF00801402
S11304849307050013870700B717000023A8E700A4
S1130494130000008320C104832281040323410444
S11304A4832301040324C103032581038325410316
S11304B4032601038326C102032781028327410201
S11304C4032801028328C101032E8101832E4101E3
S11304D4032F0101832FC100130101057300203090
S11304E4130101FB23261104232451042322610450
S11304F423207104232E8102232CA102232AB10276
S11305042328C1022326D1022324E1022322F10257
S113051423200103232E1101232CC101232AD101F9
S11305242328E1012326F10113040105B717000070
S113053403A70700B717000083A787009385070064
S113054413050700EF00000893070500138707004D
S1130554B717000023AAE700130000008320C10496
S11305648322810403234104832301040324C10358
S11305740325810383254103032601038326C10242
S11305840327810283274102032801028328C1012E
S1130594032E8101832E4101032F0101832FC10006
S11305A41301010573002030130101FF2326810088
S11305B413040101130000000324C1001301010109
S11305C473002030130605001305000093F615008C
S11305D4638406003305C50093D51500131616006D
S11305E4E39605FE678000000000000000000000A0
S10B05F40000000000000000FB
S113100005000000040000000300000001000000CF
S10B10100100000001000000D2
S9030104F7
